:100000000C94AC010C94C9010C94C9010C945C1DB6
:100010000C94C9010C94C9010C94C9010C94C90138
:100020000C94C9010C94C9010C945F220C943323E5
:100030000C94ED1A0C94C9010C94C9010C94C901DB
:100040000C94C9010C94C9010C94C9010C94C90108
:100050000C94C9010C94901B0C94C9010C94C90117
:100060000C94C9010C94C9010C94C9010C94C901E8
:100070000C94C9010C94C9010C94C9010C94C901D8
:100080000C94C9010C94C9010C94C9010C94C901C8
:100090000C94C9010C94C9010C94C9010C94C901B8
:1000A0000C94C9010C94C9010C94C9010005010507
:1000B0000205030504050505000601060206030600
:1000C00004060506000701070207030704070507E2
:1000D00000080108020803080408050800090109CE
:1000E00002090309040905090000010002000300D8
:1000F00004000500000101010201030104010501E2
:1001000000020102020203020402050200030103CD
:1001100002030303040305030004010402040304AF
:100120000404050429001E001F00200021002200F5
:100130002B0014001A00080015001700E10004004D
:100140001600070009000A00E0001D001B00060061
:1001500019000500E300E20021522C00E00000003D
:100160002E00270026002500240023002D00130068
:1001700012000C0018001C00340033000F000E00A9
:100180000D000B00E20038003700360010001100AF
:100190000000E50022522A002800000000003A007A
:1001A0003B003C003D003E0000000000000000005D
:1001B00000000000E1001E021F02200221022202B4
:1001C000000000000000000000000000000000002F
:1001D0000100000000000000440043004200410014
:1001E00040003F00310000003500250224022302B8
:1001F0003502160000002F0026022F02000000002A
:10020000000030002702300200004D004A004C0080
:1002100029000000000000000000000000000000B5
:100220000000000000000000AA00AC000000000078
:100230000000000000000000390000000000000085
:1002400000000000000000000000000000000000AE
:10025000000000000000000000000000000000009E
:1002600000000000A900AB00000000004F00520099
:1002700051005000000000000000000000000000DD
:1002800000000000010000000000000000AE00AF10
:1002900000DA0281FFD9F1DB20A4A62EAF00A0C0B6
:1002A000D30000A1C8D30000AED580A81F408D1494
:1002B00020000C0353006F0066006C006500000016
:1002C0001A034A006F007300650066004100640075
:1002D00061006D00630069006B0000000403090405
:1002E00009022200010100A0FA0904000001030133
:1002F00001000921110100012244000705810308C2
:100300000001120100020000000832FC8702010017
:100310000102000105010906A101050719E029E70D
:100320001500250195087501810295017508810167
:100330000507190029FF150026FF0095067508819D
:10034000000508190129051500250195057501917C
:1003500002950175039101C011241FBECFEFDAE0B1
:10036000DEBFCDBF11E0A0E0B1E0E2E0FCE402C0FE
:1003700005900D92A436B107D9F724E0A4E6B1E0C8
:1003800001C01D92AD3AB207E1F70E9482140C94AD
:10039000B9250C9400008330B8F46A30A8F44630D4
:1003A00098F450E096E0699F400D511D1124FA0128
:1003B0009CE3899FE00DF11D1124EE0FFF1FEC5D02
:1003C000FE4F85919491089581E090E008950E94F8
:1003D000CB01089581E008950E94EA01089581E02B
:1003E00008950E94EA0108950E94F1010895089578
:1003F0000E94F7010895A6E0B0E0E1E0F2E00C947D
:10040000292549835A839E833091730189819A817A
:1004100031111AC03E81332399F0222389F00E94C2
:100420002808182F682F89819A810E940408698101
:100430007A81812F0E942E0F2696E3E00C944525A9
:100440000E941608182FF3CF0E94280869817A812C
:10045000F1CFFC01262F408151816281738184811B
:1004600095810E94FB010895CF93DF93EC0161E039
:100470000E942902BE010E94EC01DF91CF910895F4
:10048000CF93DF93EC0160E00E942902BE010E943D
:10049000F801DF91CF91089581E008950E944C0208
:1004A0000895CF93C82F0E94D9068C2F0E944E0228
:1004B0002FEF84E39CE0215080409040E1F700C0A2
:1004C0000000CF91089581E00E9451020E94B41B68
:1004D000089580E00E9451020E94C51B08950F9369
:1004E0001F93CF93DF938C0161E00E942902EC01FE
:1004F000B8010E94F401811106C080E0DF91CF9124
:100500001F910F910895B801CE010E94D51988233B
:10051000A1F3B801CE010E949518882371F3B801A8
:10052000CE010E946B18882341F3F801858188234E
:1005300061F0C330FCE7DF07E9F058F4C115ECE7E0
:10054000DE07A9F0C130DC47B9F0C8010E94EF0115
:10055000D5CFCB358CE7D807A9F0CC35ECE7DE0753
:1005600071F0CA35DC4789F70E94650CEECF0E9416
:100570006302C3CF0E946D0C0E946902BECF0E942D
:100580005B0CE3CF0E94690CE0CF0E94CA1A0E9464
:10059000EE020E94771608950E94F2020E94CF1A7E
:1005A0000895089581E008950895CF93DF93D82F9B
:1005B0000E94D202C82F882319F08D2F0E94D402E6
:1005C0008C2FDF91CF9108950895CF93C82F0E946B
:1005D000D1028C2F0E94D502CF91089580E00E9415
:1005E000E50208950E941E1A0E94E5020895CF9325
:1005F0000E941E1AC82F809166018C1779F0C09353
:1006000066010E94591B6093670170936801809393
:10061000690190936A018C2F0E94E502CF910895A1
:10062000442319F08091750108959C0143E03695AB
:1006300027954A95E1F7620F731F8770992721E08C
:1006400030E001C0220F8A95EAF7FB0190819223E6
:1006500081E009F480E00895FC01E770FF2721E0C4
:1006600030E001C0220FEA95EAF733E096958795CE
:100670003A95E1F7FB01E80FF91F8081442319F057
:10068000282B2083089520952823FBCF0F931F93B9
:10069000CF93DF938C01DC0114968C9114978130F9
:1006A00071F511968C9111978A3048F5CC91C6302E
:1006B00030F5D0E0B6E08B9FC00DD11D1124F801BC
:1006C00045816BE671E0CE010E94100340E0882373
:1006D00089F0CE01880F991FFC01E355FF4FE4918B
:1006E000D8011196EC931197FC01E455FF4FE4916A
:1006F000EC9341E06BE671E0CE010E942C03DF91A8
:10070000CF911F910F910895ADE0B0E0EAE8F3E0DA
:100710000C942A25488759876A877B878C879D8711
:1007200091110E949B0B8C85882321F0CE010896A5
:100730000E9446031F8286E0FE013896DE01119674
:1007400001900D928A95E1F78D8181110DC029816B
:100750003A814B815C816D817E818F810E94BF0ACD
:100760002D96E2E00C944625CE0101960E943402BB
:100770008111EDCFF5CFCF93FC01C481C13089F455
:10078000808191810E945A0892959F70963049F419
:10079000863F39F0809175018C2780937501C09355
:1007A0007401CF910895CF93C82F882399F08CEFCF
:1007B0008C0F813A88F48C2F0E94521A882329F0DA
:1007C0008C2F0E94951A0E940A0C8C2F0E948D1A61
:1007D0000E940A0CCF91089580E28C0F8830D0F7E8
:1007E000C77081E001C0880FCA95EAF70E947E0BAE
:1007F000EFCF882341F09CEF980F913A28F40E94A4
:10080000951A0E940A0C089590E2980F9830D8F734
:10081000877091E001C0990F8A95EAF7892F0E94AD
:10082000840BEFCF1F93CF93DF93182FEB010E9420
:10083000D303209739F4812F0E94F903DF91CF91E0
:100840001F9108958FE99FE00197F1F700C0000024
:100850002197EFCF6AE070E0893311F460E570E032
:100860000E9412040895882321F00E947E0B0E94AA
:100870000A0C0895882321F00E94840B0E940A0C20
:100880000895B0E0A0E0E7E4F4E00C9423256C01C7
:10089000C62F172FFC01D581068102950F700E948B
:1008A000740BE82E882311F1DD2369F1812F807FFD
:1008B000803481F090E29C0F983028F1912F907E47
:1008C000903221F4C230F8F00023E9F0803611F4C0
:1008D000C63FC9F080917D0282FF15C082E00E9470
:1008E0002F0C0E94740B91E0E82EE926B12EB294F1
:1008F0009FE0B922FBE0FB15C0F1EB2DF0E0E554E1
:10090000FA4D0C941425E12CF1CF012F0F70812F9B
:10091000807F11F00295007FDD2399F0002359F0CC
:1009200080E28C0F883010F0C11107C0802F0E9428
:100930007E0B0E940A0C8C2F65C0802F0E948E0BAC
:10094000F8CF8C2F0E94F903002379F080E28C0FFE
:10095000883010F0C11104C0802F0E94840B03C0A6
:10096000802F0E94940B0E940A0C2B2D2850330BD1
:100970002430310520F40E941E1A0E94E502DD2376
:1009800039F0107F103611F4C63F11F00E94670B4A
:10099000EE2089F00E944A0B80FD0DC0F601158201
:1009A0000E94440B0E946207C6010E94AC060E948E
:1009B000440B0E947207CDB7DEB7E9E00C943F25E7
:1009C000212F2F70F22E812F807F803219F0F29428
:1009D00080EFF822CC2341F0C130D1F1DD2309F4BE
:1009E00044C00023F1F0A7CF80917D0282FD15C0A5
:1009F000DD2359F0FF2029F08F2D0E947E0B0E94ED
:100A00000A0C80E00E94D303B0CF80E00E94F9037B
:100A1000FF2009F4AACF8F2DA0CFDD2369F00111AB
:100A200004C08F2D0E943304A0CF013009F09DCF68
:100A30008F2D0E94B20B99CF011197CF8F2D0E945D
:100A40003A048F2D0E94BE0B8F2D0E94A20B8DCFDA
:100A5000DD2321F0063008F088CFE3CF053008F021
:100A600084CF8F2D0E943A0480CF0023D1F3C93365
:100A700069F43FEF87EE93E0315080409040E1F71A
:100A800000C000008C2F0E94F9036FCFEFE3FCE958
:100A90003197F1F7F5CF812F8370A9F5D11165CF8B
:100AA0002C2F229526952770220F220F4C2F4F7046
:100AB00050E0022E02C0440F551F0A94E2F790E066
:100AC00080E0C4FF09C08FE090E002C0880F991F4A
:100AD0002A95E2F780959095212F269526952370EB
:100AE000842B952B223049F058F4213019F00E94C4
:100AF00032073BCF0E94290738CF0E943B0735CFF2
:100B00000E94260732CF8695DD2311F0812F817058
:100B1000882309F42ACF2C2F229526952770220F9F
:100B2000220F4C2F4F7050E0022E02C0440F551F71
:100B30000A94E2F790E080E0C4FF09C08FE090E003
:100B400002C0880F991F2A95E2F780959095212F72
:100B5000269526952370842B952B223049F058F446
:100B6000213019F00E949D0700CF0E949407FDCE0E
:100B70000E94A607FACE0E944A07F7CE012F0F70F7
:100B8000DD2329F0802F0E9462078C2F4BCF8C2F02
:100B90000E943A04802F0E947207E7CEC23F41F1C3
:100BA00060F4C03FB9F0C13F81F0DD2309F447C0D4
:100BB0000111C1CE812F8F711FC0C33F01F1C43F0E
:100BC000A1F780917D0282FD24C0812F8F71DD23EA
:100BD00011F312C0DD2341F0053008F0C6CE812F9D
:100BE0008F710E948407C1CE063008F0BECEF7CFC9
:100BF000812F8F71D111CFCF0E946207B6CEDD2336
:100C000029F0812F8F710E945607AFCE0E945107A5
:100C1000ACCEDD2351F0012F0F71802F0E946207AF
:100C200063E0802F0E94110CA0CE81E00E942F0C67
:100C3000023008F49ACE82E00E942F0C96CE002358
:100C400079F0C93341F4FFEF27EE33E0F150204053
:100C50003040E1F715CF8FE39CE90197F1F710CF12
:100C6000812F8F7198CFE0E1EC0FE73090F5F0E045
:100C7000E953FA4D0C941425DD2309F476CE8091C6
:100C8000750191E08927809375016FCED09375012E
:100C90006CCE81E08D27F7CF81E0DD23A1F365CE17
:100CA000D11163CE1092750160CEDD2319F00E9440
:100CB0004E0B5BCE0E945A0B58CEDD2339F080914B
:100CC00074018823E1F2109274014FCE0530B8F21E
:100CD0004CCE809174010023D9F0882341F080919B
:100CE000750191E089278093750110927401D111EB
:100CF00022CEEFE3FCE93197F1F700C000008C2F22
:100D00000E94F90387E0F60111928A95E9F72DCE4A
:100D1000882309F42ACED11128CE8091750191E063
:100D2000892780937501CFCF0F931F93CF93DF93C4
:100D3000EC01688179818D810E9465088C010E9497
:100D4000AF070E942507B801CE010E944104DF9140
:100D5000CF911F910F910895CF93DF93EC018C8178
:100D6000882399F0CE010E946F02811111C00E9468
:100D7000740B882351F08D81882339F080917D0296
:100D800082FF03C082E00E942F0CDF91CF91089573
:100D9000CE010E949406CE010E944002F6CF0E942E
:100DA0009B0B0E940A0C08950E949D1A0E94CF0678
:100DB00008950E948B0B0E94D406089592959F700F
:100DC000963091F058F4925F9F70923058F4803FC3
:100DD00019F030F4883E30F481E008959A5FF4CF42
:100DE000843FD1F380E00895883EB0F3813FD1F78E
:100DF000F3CFFC012481222339F0808191810E946C
:100E00005A080E94DE06089580E00895A6E0B0E04A
:100E1000ECE0F7E00C942A252696E2E00C944625B7
:100E2000A7E0B0E0E6E1F7E00C942A252796E2E09F
:100E30000C94462508950E941A0708950E941B07E6
:100E40009093990180939801089508950E941E0738
:100E500008952091980130919901822B932B0E9443
:100E60001E070895209198013091990182239323C0
:100E70000E941E07089520919801309199018227C0
:100E800093270E941E0708950E941A0708950E9442
:100E9000440708950E944707909397018093960115
:100EA000089590E080E00E944A07089521E030E034
:100EB000A90102C0440F551F8A95E2F7CA010E949A
:100EC0004A07089521E030E002C0220F331F8A95BF
:100ED000E2F78091960190919701822B932B0E94CB
:100EE0004A07089521E030E002C0220F331F8A959F
:100EF000E2F7209530958091960190919701822399
:100F000093230E944A07089521E030E002C0220F97
:100F1000331F8A95E2F7809196019091970182277D
:100F200093270E944A0708952091960130919701D6
:100F3000822B932B0E944A070895209196013091AD
:100F40009701822393230E944A07089520919601D6
:100F500030919701822793270E944A0708950895A8
:100F6000262F277091E001C0990F2A95EAF723E018
:100F7000769567952A95E1F7660F771F660F771FBD
:100F8000FA01E60FF71F50E040E0682F70E0819112
:100F9000DF0111979B01042E02C0369527950A9414
:100FA000E2F7217021952827292328272C934F5FCA
:100FB0005F4F4430510559F70895A82FA77023E0DB
:100FC000969587952A95E1F7880F991F880F991FA5
:100FD000FB01E80FF91F50E040E080E0219130E094
:100FE0000A2E02C0369527950A94E2F7217033271E
:100FF000042E01C0220F0A94EAF7822B4F5F5F4F45
:101000004430510559F70895262F9A3070F48630F0
:1010100060F4682F70E086E0989F600D711D1124C8
:1010200046E751E0822F0E94B0070895292F9A3099
:1010300068F4863058F490E066E771E036E0239F6C
:10104000800D911D11240E94DD07089580E0089510
:10105000B0E0A0E0EEE2F8E00C9423257C010091E2
:101060009601109197018091980190919901082B18
:10107000192BCFE0D0E0CC24C394D12CBC2EC601D8
:101080000C2E02C0880F991F0A94E2F78023912347
:10109000892B49F4219790F7B12C8B2DCDB7DEB772
:1010A000E9E00C943F25B7018C2F0E943A0F01977D
:1010B00089F3F3CFCF93DF93EC010E942808BE01A0
:1010C0000E943A0FDF91CF9108951F93CF93DF9342
:1010D000EB0190917301992339F0CB010E945A08DA
:1010E000DF91CF911F910895882369F0CB010E9471
:1010F0002808182F682FCE010E940408BE01812FF6
:101100000E943A0FEDCFCB010E941608182FF6CFA0
:101110001F93CF93DF93C0919A0117E080919B01B9
:101120008C1304C0DF91CF911F910895D0E01C9FD4
:10113000F0011D9FF00D1124E456FE4F20813181F6
:10114000428153816481758186810E9410072196B6
:10115000C770E4CF2091D4013091D5014091D601E0
:101160005091D7016091D8017091D9018091DA0135
:101170000E9410070895CF93DF938091DA01807F5A
:1011800009F04DC08091D901882309F448C0E0914D
:101190009A0150919B01C091D501D091D4016091E9
:1011A000D6017091D70147E05E17C9F18E2F90E00C
:1011B000E49FF0011124E456FE4F2481222391F193
:1011C000489FF001499FF00D1124DF01A456BE4F46
:1011D00011962C9111972C1325C02C912D1322C000
:1011E00015962C91159721111DC012962D913C91A9
:1011F000261B370B24363105A8F48091DA018F7055
:1012000080618093DA01EE55FE4F80818F7080619E
:10121000808384ED91E00E94AC060E948808DF91F3
:10122000CF910895FC013196E770BECF482F2091F1
:101230009A0190919B0157E0291302C080E0089524
:1012400030E0529FF001539FF00D1124E456FE4F01
:101250008181681306C08081481303C08581811194
:10126000EECF2F5F3F4F2770E7CFA4E1B0E0EBE375
:10127000F9E00C9420258C0186E0F801DE011F9630
:1012800001900D928A95E1F7F8018481E58094ED53
:10129000A92E91E0B92E9091D80191111FC08823F9
:1012A000D1F0EE20A9F0C8010E94F906F82E88239B
:1012B00079F087E0F801D50101900D928A95E1F768
:1012C000C5010E94BB030E94BB080E94AA085FC020
:1012D000C8010E94AC06FF24F39459C0C080D1809D
:1012E00082809380F090D9012091D6013091D7016E
:1012F000A401421B530BFF2009F4F9C044365105E9
:1013000008F0A7C0882309F442C09091D5018091CC
:10131000DA01282F207F09F05CC09D1116C0909142
:10132000D401C91212C0E1104EC08F708061809349
:10133000DA010E94AA0884ED91E00E94AC06809137
:10134000DA01F8018683F12C22C0E1103CC06D2D3A
:101350008C2D0E9416096D2D8C2D0E941609E82EE9
:101360008111F1CFCF86D88A8F8598890E945A083B
:10137000292F22952F70243078F49F702230A8F006
:101380009923B9F0F8019681907F99F4FE2C8F2D66
:101390006496ECE00C943C252A5F2F70223068F0B4
:1013A000C8010E94AC06EF2CF1CF992311F08823DD
:1013B00069F3805E883050F3F3CF803F38F3815F6C
:1013C000833070F7E3CF8091DA0181608093DA0196
:1013D000BACF9D1113C09091D401C9120FC0E11072
:1013E0000DC08683C8010E94AC0687E0F801A4ED19
:1013F000B1E001900D928A95E1F767CFC8010E9494
:10140000F906882309F464CFEE2009F461CF8091B6
:10141000DA01803288F02091D4013091D5013987EA
:1014200028879B868A869091D8019C871D868E8707
:10143000CE0108960E94AC0687E0F801A4EDB1E069
:1014400001900D928A95E1F70E94BB080E94AA08BC
:1014500042CF9091DA01292F207FA1F4682D9A8A3A
:10146000898AA6017A899E2D0E94060784ED91E063
:101470000E94AC0687E0F50111928A95E9F70E9477
:10148000AA0861CF882309F482CF8091D5018D11FC
:1014900010C08091D401C8120CC0E1100AC096831C
:1014A000C8010E94AC0687E0F50111928A95E9F720
:1014B0006ECFC8010E94F906882309F409CFEE20F7
:1014C00009F406CF8091DA01803208F4B5CF20917B
:1014D000D4013091D5013A8329839C828B829091EB
:1014E000D8019D831E828F83CE010196A3CF4436FF
:1014F0005105B8F5882309F4EECEFE2CEE2009F450
:10150000E7CE8091D5018D111EC08091D401C81203
:101510001AC08091DA0180FD0DC0982F907F51F0A4
:101520008683903F09F45ECF982F907F905F8F70F5
:10153000892B57CF87E0F801A4EDB1E001900D921F
:101540008A95E1F724CFC8010E94F906811174CF72
:101550008091DA0181608093DA01C8010E94AC06B3
:1015600016CF682D9A8A898AA6017A899E2D0E94B3
:10157000060787E0F50111928A95E9F7A6CEAEE05D
:10158000B0E0E5ECFAE00C942925288739874A87F2
:101590005B876C877D878E87CE0108960E94350910
:1015A0008823B1F06C85662341F0288539854A850A
:1015B0005B857D858E850E94100717E080919A01DA
:1015C00090919B0189133DC02E96E3E00C94452534
:1015D00087E0FE013896DE01119601900D928A9502
:1015E000E1F78C85882349F320919B0130E0C90104
:1015F00001968770992740919A014817190699F02A
:1016000097E0929FD001939FB00D1124A456BE4F36
:10161000FE01319601900D929A95E1F780939B011E
:101620000E948808CACF0E94D90610929B0110928E
:101630009A0187E0E4EDF1E0DF011D928A95E9F778
:10164000BCCF819FC001112484569E4F0E94350952
:10165000882309F4B9CFE0919A011E9FF00111246B
:10166000E456FE4F2081318142815381648175812E
:1016700086810E94100780919A0190E00196877000
:10168000992780939A019ACF8091E4018695869557
:10169000869508958091E4018770089582E0809393
:1016A000E30181E08093750108951092E3011092A7
:1016B000750108958091E301823021F481E08093E7
:1016C000E3010895833011F40E94550B0895809131
:1016D000E301823021F483E08093E30108958130B7
:1016E00011F40E94550B08959091E401977081E0E8
:1016F00009F480E008958091F00108959091F0013F
:10170000892B8093F001089580959091F0019823A2
:101710009093F00108951092F00108959091EF01D7
:10172000892B8093EF01089580959091EF01982384
:101730009093EF0108951092EF01089508950E948B
:101740009E0B08959091E501292F282331F0809573
:1017500089238093E5010E949F0B089508950E94BC
:10176000AE0B08959091E601292F2823281729F020
:10177000982B9093E6010E94AF0B08959091E6019B
:10178000292F282331F0809589238093E6010E9438
:10179000AF0B08958091E601882329F01092E601AD
:1017A00080E00E94AF0B08950F931F93CF93DF93B8
:1017B0000091000110910101C091F0018091EF01B1
:1017C000C82B8091E601882331F0C82B0E943D1A76
:1017D00081110E94CA0BF801C083C0910001D09111
:1017E000010148E050E06BED71E0CE010E9451250F
:1017F000892B59F088E0FE01ABEDB1E001900D922C
:101800008A95E1F7CE010E94321ADF91CF911F91A4
:101810000F9108950E94D40B089508950E940D0C15
:10182000089590917D0292FF11C098E0899F9001E8
:101830001124622B6093E4010E9462078091E4010D
:101840008695869586950E940E0C08950E946207E3
:1018500008951092E40180E00E940E0C089590918A
:10186000E401809589238093E401282F277069F48F
:10187000891759F090917D0292FF07C08695869551
:1018800086950E9472070E94290C089590917D020E
:1018900092FB222720F9281769F080FB92F9909398
:1018A0007D0280917C0290917D020E948E0C82E0EC
:1018B0000E942F0C089580917D0282FB882780F979
:1018C00091E089270E94460C089581E00E94460C11
:1018D000089580E00E94460C08956FEF7FEF90E03E
:1018E00080E00E94A325089590E080E00E946F258B
:1018F00021E0863E9E4F09F020E0822F089582E08D
:1019000090E00E946725089583E090E00E9467259B
:10191000089584E090E00E946F250895BC0184E062
:1019200090E00E94A3250895AB01BC018FE090E0F8
:101930000E9497250895AB01BC0183E190E00E94CD
:101940009725089560E070E0CB010E949B0C0895FC
:1019500060E070E0CB010E94940C0E94A20C0895FC
:10196000A8E0B0E0E6EBFCE00C942A2566EE7EEF02
:1019700090E080E00E94A32560E082E090E00E9479
:10198000852581E090E0909399018093980161E032
:1019900083E090E00E94852560E074E184E090E0BF
:1019A0000E94A32560E086E090E00E9485256FEF0D
:1019B00087E090E00E94852540E050E0BA0188E091
:1019C00090E00E94972560E084E290E00E948525E7
:1019D00060E087E190E00E94852560E08CE090E087
:1019E0000E94852560E08DE090E00E9485251982A7
:1019F0001A821B821C821D821E821F82188648E06A
:101A000050E068E170E0CE0101960E94752540E04B
:101A100050E0BA0180E290E00E9497250E94A80C55
:101A20002896E2E00C9446250E94B00C0895682F99
:101A30008EE090E00E9485250895A6E0B0E0E3E204
:101A4000FDE00C9428250E944D1B8C018091F10132
:101A50009091F2018017910781F019821A820E94F9
:101A60004D1B682F49815A81792F80E090E00E94B8
:101A700084031093F2010093F1012696E4E00C94A4
:101A800044250E94561060930502709306028093CD
:101A90000702909308026093010270930202809300
:101AA00003029093040208950E9456106093050269
:101AB0007093060280930702909308026093FD01E1
:101AC0007093FE018093FF019093000208950895A2
:101AD00008950E94670D089508950E946C0D089561
:101AE00081E0089580E790E10E948F140E94680DC4
:101AF0000E94690D08950E94461208950895089560
:101B00000E947E0D0E947F0D08950E9473100E9416
:101B1000E40208950E94441B0E9430100E944C125F
:101B20000E94F0160E949D110E94850D0E9453187C
:101B300080E00E94FA140E945E120E946D0D0895CA
:101B4000A6E0B0E0E6EAFDE00C9420250E94700DCE
:101B5000C82E811111C00E941D0DC12C0E94461279
:101B60000E947417882309F45DC00E94540D0E94DE
:101B700097160E945D155AC00E94C01183EFA82ECF
:101B800081E0B82E750110E0F70101917F01812FEE
:101B90000E9499101F5F1A3009F441C00817A1F381
:101BA0008091090281FD0E949F100E947B0D982E5A
:101BB00010E088248394812F0E949910082FF5014A
:101BC00081915F01081729F1F12CEE24E394D02EC6
:101BD000D8268D2D8E21A9F0992099F0F9821A83AB
:101BE0000E944D1B9C838B838D8291E0802F8E21E0
:101BF00009F490E049815A816B817C818D810E943A
:101C00008403F394EE0CF6E0FF12E3CFF501319775
:101C100000831F5F1A3079F60E94410D9FCF081391
:101C2000BFCF99CF0E949716C110A3CF0E94F70291
:101C30002696ECE00C943C250F931F93CF93DF93F3
:101C40000E943F0FEC01C03282E5D80708F040C087
:101C5000C11582E5D80708F094C0C11580E2D80705
:101C600010F5C11581E0D80708F07AC0C03ED10553
:101C700088F4CD3CD10508F071C0C130D10569F0C0
:101C8000209759F0CE010497813A910530F0D0E0C9
:101C9000C0E003C0C83ED105D0F7CE01DF91CF919F
:101CA0001F910F910895C11580E5D80708F0ACC0C9
:101CB0008E011127C11580E4D80708F4BFC0C80100
:101CC0000E943F0FCC27DF70C82BD92BD06AE5CFFD
:101CD000C03A82E5D80720F5C03882E5D80708F079
:101CE00080C0C03682E5D80708F066C0C03482E5FF
:101CF000D80708F45AC02C2F26952695277080E225
:101D0000289F900111248C2F8370C1E0D0E002C085
:101D1000CC0FDD1F8A95E2F7C22BD32BDC68BDCF39
:101D2000C03E82E5D80760F4C03C82E5D80708F4DD
:101D30005FC0DC2FCC27CC27DF71C06FD06AADCF5E
:101D4000CE0196558F3F910511F008F0A0CFCE013E
:101D500099270E943F0FEC01D0669FCFD0659DCFA1
:101D60008D2F0E94E10F182FCE0199270E943F0F5F
:101D7000C12FD0E0DC2FCC27CC27DF71C82BD92B8B
:101D80008CCF2C2F2695269580E2289F9001112438
:101D90008C2F8370C1E0D0E002C0CC0FDD1F8A958C
:101DA000E2F7C22BD32BDD6878CFCF71D0E0DC2FE8
:101DB000CC27C16FD06A71CF2C2F2695269527701E
:101DC00080E2289F900111248C2F8370C1E0D0E025
:101DD00002C0CC0FDD1F8A95E2F7C22BD32BDA6845
:101DE0005CCFCF71D0E0DC2FCC27C46FD06A55CF49
:101DF0008C2F8F710E94E10FC82FD0E0DC2FCC27F1
:101E0000CC27DF71D06249CF8C2F8F710E94E10FF8
:101E100055E0D695C7955A95E1F7CF70D0E0DC2F05
:101E2000CC27282F30E084FF05C044E0220F331F69
:101E30004A95E1F7C22BD32BD0692FCF8D2F8F710D
:101E40000E94E10FC82FC8010E943F0FD0E0DC2F95
:101E5000CC27CC27DF71C82BD92BD4CF462F7A3093
:101E600030F4663020F4672F0E94E701089590E077
:101E700080E008950E942E0F0E941C0E0895823863
:101E80009105B9F1B0F48133910509F47DC048F4AE
:101E90008932910509F46DC08A32910509F47BC03D
:101EA00008958533910509F45FC08933910509F1DF
:101EB0000895833E9105D9F138F4803E910529F1CA
:101EC000823E910579F10895863E9105D9F1873ECC
:101ED000910509F43EC0843E910541F520917D02B3
:101EE00021FF24C080917C0284FD19C087EE90E020
:101EF000089520917C02237009F05AC020917D0240
:101F000023FF14C089E290E0089520917C0220FD17
:101F100038C030917D0230FF09C024FF43C090E0FB
:101F200080E0089520917C0222FDF7CF0895209152
:101F30007C0222FD3AC030917D0230FD39C024FF81
:101F4000F5CFEDCF20917C0223FFF0CF24FDE7CF2A
:101F5000CDCF20917C0223FD2EC030917D0231FF38
:101F6000EECF84EE90E0089520917C0225FFDECF35
:101F7000C9CF20917C0225FD21C020917D0223FF45
:101F8000D5CF89E390E0D2CF20917C0226FFCECF3F
:101F90008AE290E0089520917C0226FFC7CF81E37A
:101FA00090E0089583EE90E0089582EE90E0089529
:101FB00080EE90E0089586EE90E0089585E390E04D
:101FC000089590917C0292FF10C041E0282F247167
:101FD000243009F040E031E0282F2871283009F042
:101FE00030E0431711F02CE0822793FF10C041E04E
:101FF000282F2471243109F040E031E0282F287186
:10200000283109F030E0431711F02CE0822730919D
:102010007D0230FF10C051E0282F2171213009F0DE
:1020200050E041E0282F2871283009F040E0541793
:1020300011F029E0822731FF10C041E0282F2171E3
:10204000213109F040E031E0282F2871283109F0D2
:1020500030E0431711F029E0822794FD877E089530
:10206000109278021092790210927A0210927B02FA
:102070000895CF92DF92EF92FF926B017C010E9454
:10208000461281110EC00E94591BC61AD70AE80ACF
:10209000F90AC0927802D0927902E0927A02F09224
:1020A0007B02FF90EF90DF90CF9008950F931F93E6
:1020B0000E944612882329F00E94591B1F910F91FC
:1020C00008950E94591B0091780210917902209185
:1020D0007A0230917B02600F711F821F931FEECF37
:1020E00080E0089508950E94740C811102C00E943E
:1020F000140D0E947F0C809309020E94890C90931A
:102100007D0280937C020E9472100E94840C90E0F9
:102110000E94260780919601909197010E9447079F
:10212000089508950E949110089508950E949510B1
:102130000895E82FF0E0E757FD4F80810895089556
:1021400080EA8A95F1F7089500C008950E94A010D2
:10215000089508950E94A9100895A5E0B0E0E3EB6A
:10216000F0E10C9426250E944612F82E609193020D
:10217000882309F440C085E0E82E8E010F5F1F4FD1
:10218000F8018E2D11928A95E9F7862F90E0B8011B
:1021900087579D4F0E946C128823B9F080917E0270
:1021A00090E045E050E0B80187579D4F0E945125CF
:1021B00021E020930A02892B91F4F12C0E949610C1
:1021C0008F2D2596E6E00C94422580910A02882303
:1021D000A1F3F8011192EA94E9F710920A02A09192
:1021E0007E02B0E0A757BD4F85E0F80101900D9247
:1021F0008A95E1F7E3CF70E067577D4F80917E02CB
:1022000090E087579D4F0E94F3120E94AA10D8CFEA
:10221000F894E82FE295EF70F0E031A1282F2F70AD
:1022200081E090E001C0880F2A95EAF7982F9095F9
:10223000932391A392A1892B82A3789408950F935D
:102240001F93CF93DF93C5E4D1E089918F3F11F0C5
:102250000E94081181E0CA34D807B9F7CFE3D1E072
:1022600005E411E089918F3F11F00E9408110C17CD
:102270001D07C1F7DF91CF911F910F910895B0E035
:10228000A0E0E5E4F1E10C942425EC01D62E062F24
:1022900010E0C8018B5B9E4F7C01FC0180818F3F69
:1022A00009F444C0F894E82FE295EF70F0E091A1B2
:1022B0008F7021E030E001C0220F8A95EAF7892F64
:1022C000822B81A382A12095282322A378940E94A7
:1022D000A410EFE3F1E031E0C12C21912F3F59F13F
:1022E000A22FA295AF70B0E090968C9190E02F70E5
:1022F00002C0959587952A95E2F780FD1CC0832F33
:10230000C82A330F81E0E534F80739F7F7018081F7
:102310008F3F11F00E94081161E0C11001C060E020
:102320008D2D0E94A610C00FD11FC882CDB7DEB779
:10233000E8E00C94402580E0E3CF80910201809199
:10234000020195E0811190E09093930285E0891B52
:1023500080937E020E941F118AE0E9E8F2E0DF012B
:10236000982F1D929A95E9F7EFE7F2E0DF011D92B1
:102370008A95E9F785E00E94FE110E949210089567
:10238000AAE0B0E0E6ECF1E10C9427258E010F5FA6
:102390001F4F8AE0F80111928A95E9F7F12C6F2D11
:1023A000C8010E943F11F394F5E0FF12F8CF4AE014
:1023B00050E0B8018FE792E00E94512521E000979C
:1023C00009F420E0892B41F08AE0F801AFE7B2E0A0
:1023D00001900D928A95E1F76091930270E0675742
:1023E0007D4F45E08FE792E00E94FF11182F0E9479
:1023F000AD10812B2A96E5E00C9443250895B0E0BA
:10240000A0E0E5E0F2E10C9424256C017B01042FAF
:10241000C22F222379F081E080930D020E944D1B90
:1024200090930C0280930B0280E0CDB7DEB7E8E01A
:102430000C944025D0910D02DD23B1F380910B0265
:1024400090910C020E94651B059770F310E0A801A3
:10245000B601C7010E945125892B31F0A801B601B0
:10246000C7010E945E25CD2F10920D028C2FDDCF6B
:10247000CF930E94DF24C82F811102C00E94DA246A
:102480008C2FCF91089580911102089580911002B0
:1024900008950E94461208950E94381280931002F7
:1024A0000E944912809311020E94431280930201FC
:1024B0000E94461281110E94A21208950E944612A3
:1024C000811102C00E94A512089581E0909112022C
:1024D0009A3008F080E008950F931F93CF93DF9315
:1024E000EC018B01809112028A30B8F4B801CE0160
:1024F0000E94F012C82F811122C0809112028F3FDA
:10250000B9F40E944D1B90930F0280930E028C2F02
:10251000DF91CF911F910F91089580910E029091BC
:102520000F020E94651B843F914000F7C0E0EFCF8F
:102530008F5F809312028A3020F7C1E0E8CF1092BB
:102540001202E5CF0E94161D08950E94191D0895DC
:10255000B0E0A0E0EEEAF2E10C9425257901C82F65
:10256000880FDD0B41155105A9F0FE0193E0EE0F38
:10257000FF1F9A95E1F7ED5FFE4F818192818D5E9D
:102580009D4F208130E04217530708F49A01A901BA
:102590000E945E25CE010E94021ED82E8823D1F013
:1025A00001151105B9F083E0CC0FDD1F8A95E1F725
:1025B000FE01ED5FFE4F438150E00417150708F45C
:1025C000A801CD5FDE4F6C817D816D5E7D4FC701BF
:1025D0000E945E258D2DCDB7DEB7E7E00C94412536
:1025E0000E940C1408950E942D140895A4E0B0E0F8
:1025F000ECEFF2E10C9428256091300270913102E9
:1026000080913202909133020E94741B11E0643673
:1026100071058105910518F10E9456106E5F7F4F7C
:102620008F4F9F4F69837A838B839C8310E000E0F8
:1026300030E020E044E050E0BE016F5F7F4F84E077
:102640000E94A812182F882351F00E94591B6093F2
:102650003002709331028093320290933302812FC3
:102660002496E4E00C944425A1E0B0E0EAE3F3E131
:102670000C941F25762E4A015901680101E010E0F3
:102680009E012F5F3F4F50E040E070E060E00E940D
:10269000A812182F882399F1F40160817181828139
:1026A00093810E94741B643671058105910500F1C8
:1026B0008701950150E040E070E060E0872D0E94C6
:1026C000A812B82EB701C6010E94541811E09981D2
:1026D000981310E01B2139F00E94591BF40160830C
:1026E000718382839383812F2196EDE00C943B25A7
:1026F000B701C6010E94541899818913D9CFA70147
:10270000B601C5010E945E25EECFA1E0B0E0EBE886
:10271000F3E10C94262500914A0110914B01095FC9
:102720001F4FEE24E394F12C9E012F5F3F4F4CE2AC
:1027300052E063E082E00E943413182F882321F0D6
:10274000CE0101960E940F18812F2196E6E00C948D
:102750004225A5E0B0E0EFEAF3E10C9424256B01FB
:1027600000914A0110914B010F5F1F4F85E0E82E49
:10277000F12C9E012F5F3F4F48E252E061E080E084
:102780000E943413882349F095E0FE013196A3E2BC
:10279000B2E001900D929A95E1F795E0E3E2F2E064
:1027A000D60101900D929A95E1F72596E8E00C94F8
:1027B0004025B0E0A0E0EFEDF3E10C9422257C0190
:1027C0005B016A010E94651201E010E0882311F0AC
:1027D0000AE010E0C1E0D0E0B501C701F6010995BB
:1027E000811104C021960C171D072CF4CDB7DEB75C
:1027F000EAE00C943E25CC9F9001CD9F300D300D2A
:10280000112490E080E045E34A95F1F7000001963D
:1028100082179307C1F7E0CF0F931F93CF93DF93F6
:10282000EC018B0149EA53E10E94D913811106C0E2
:1028300080E0DF91CF911F910F91089545E853E11A
:10284000B801CE010E94D913882391F346EF52E1DB
:10285000B801CE010E94D913ECCFA1E0B0E0E3E3D0
:10286000F4E10C94282500914A0110914B01C80114
:10287000019625E0FB01DC0101900D922A95E1F71C
:1028800065E070E00E945418F8018083CE01019643
:102890000E9404188981F801878361E070E0CE010D
:1028A00001960E945418F80186836085718582859F
:1028B000938500911F0210912002209121023091F6
:1028C0002202601771078207930751F060931F027D
:1028D0007093200280932102909322020E9439106B
:1028E0002196E4E00C9444250E94C21F0E948A0DA8
:1028F0000E94CF1F08950E94D41F0E94A00D0E9425
:10290000EE1F08950E94E61A0E94A81F0E94720DF1
:102910000E9474140E947B140E94800DFBCF909340
:102920006501809364010895AB0124E630E0BC01A9
:1029300088E70E94701C21E0892B09F020E0822F9B
:102940000895B0E0A0E0E7EAF4E10C9424256C01DE
:102950007B0164E670E088E70E94D61B8C01E601EB
:10296000EC0CFD1CCE15DF0561F40E94B81C81E063
:102970000115110509F080E0CDB7DEB7E8E00C9451
:10298000402517FDF2CFFE01849164E670E00E94BD
:10299000421C8C012196E6CF0F931F939B0104E606
:1029A00010E0AC0160E488E70E94911C21E0892BD3
:1029B00009F020E0822F1F910F9108950E94D01BF3
:1029C000089508950E94E1140895E4E9F2E080E09A
:1029D00092E0DF019C011D9221503040E1F7F0931D
:1029E0009B04E0939A048FEF9FEF90935A02809399
:1029F00059020895CF930E94E1140E94E21480933B
:102A0000550280FD11C080E8809354020E94DE14BC
:102A10006BE070E087EA92E00E94A114811106C089
:102A2000C0E08C2FCF91089580E2EECF80915502C7
:102A300065E070E081FD27C082EA92E00E94A11467
:102A4000882371F36DE070E080E992E00E94A114A8
:102A5000C82F882329F30E94591B605A75418F4F54
:102A60009F4F60939604709397048093980490937B
:102A700099040E94E51481E08093580280935702E4
:102A800010925602CECF8DE992E0D8CF2091540219
:102A900036E0839FC0011124629F800D911D112497
:102AA000811522E0920714F090E080E08C569D4F53
:102AB00090939B0480939A04089580915802811109
:102AC00003C08091570208950E94591B605A7541B6
:102AD0008F4F9F4F60939604709397048093980450
:102AE00090939904809157028111EBCF62E070E0DE
:102AF0008EE892E00E94A114882319F381E080936C
:102B00005702DFCFA6E0B0E0E8E8F5E10C941A2523
:102B1000182F8091590290915A02892B09F18091C6
:102B200058028823E9F080915602811119C00E9451
:102B30005D151C821B8222242394312C03E064E562
:102B4000E62E61E0F62E77E0672E80915902909193
:102B50005A02009729F0BC81BB2349F0111107C02C
:102B60002696E2E10C9436252B812F5F2B833B8147
:102B7000C32ED12C210102C0440C551C3A95E2F71A
:102B8000920128233923232B79F38091550280FD6C
:102B90003EC08B818295880F807680932D019601AF
:102BA000369527953695279520933001815E809341
:102BB0002E012093310167E070E08BE291E00E94EA
:102BC0009414882369F2C60135E0880F991F3A955D
:102BD000E1F72091550220FD28C060E270E08C569C
:102BE0009D4F0E94CC14882309F4BACFC20180956E
:102BF00090954090590250905A0248225922509282
:102C00005A02409259024C814F5F4C839ECF8B8178
:102C1000880F880F880F80932D0110923001895FF3
:102C200080932E0100933101C6CFA4E3B2E0E0E22D
:102C30001D92EA95E9F720E531E03E832D832CE4EF
:102C4000C22E21E0D22EAD81BE816D91BE83AD83B7
:102C5000F60121916F01280F392F311DA9014C5622
:102C60005D4F5A834983E62FF0E0EC5CFD4F30E086
:102C700020E0762C721A922C022E01C0990C0A9434
:102C8000EAF769817A81A12CDB01BD90BD01B920F1
:102C9000472D4A194770842E042E000C550BBB2D6E
:102CA00001C0BB0F8A94EAF78B2E519541955109CB
:102CB0004770552701C0B6944A95EAF78B28B08033
:102CC0008B288082A39448E0A412DECF2F5F3F4F71
:102CD00031962830310569F6AD81BE81EA16FB06D2
:102CE00009F0B1CF60E270E084E392E07ACF8091A6
:102CF000570290915802911103C091E089270895DD
:102D0000882369F062E070E08CE892E00E94A114F0
:102D1000811103C08091570208951092570280914B
:102D20005702EBCF81E008950E94921608950F9309
:102D30001F9380915802882381F18091940490918F
:102D400095040E94651BC29760F00E944D1B9093F2
:102D500095048093940460E080E00E9446150E94F0
:102D6000941680E00E948215809157028823A9F072
:102D70000E94591B00919604109197042091980489
:102D800030919904601B710B820B930B6F3F7F4F47
:102D90008F4F9F4710F40E9477161F910F9108954F
:102DA0008FE891E00197F1F700C00000089581E0FD
:102DB0000895CF93DF93D62F0E94D716C82F88236C
:102DC00041F06AE070E08EE4D11101C08BE40E9412
:102DD00012048C2FDF91CF9108950E94461208951E
:102DE0000F931F93CF93DF939091020181E0982777
:102DF00090935F02282F291B20935E02909102017D
:102E0000809360029091020180935D0280910201A3
:102E1000811106C084EF8093330185EF80933201E6
:102E200020913301E22FE295EF70F0E061A12F7065
:102E300081E090E0AC0101C0440F2A95EAF7342FFD
:102E40003095362331A322A1242B22A320913201D5
:102E5000E22FE295EF70F0E031A12F7001C0880FF2
:102E60002A95EAF7982F9095932391A392A1892B05
:102E700082A30E94D0166091600243E652E0C3E351
:102E8000D1E002E311E0FA0126C02991822F829558
:102E90008F7090E0DC0190968C9190E02F7002C0D2
:102EA000959587952A95E2F78170D8019D918D01BE
:102EB000292F22952F7030E0D90190962C9130E087
:102EC0009F7002C0359527959A95E2F790E020FD16
:102ED00092E0892B81938E2F841B8617B0F2DF91AD
:102EE000CF911F910F910895B0E0A0E0EAE7F7E1DC
:102EF0000C94242510E000E082E0C82ED12C8091B3
:102F00006002181730F0802FCDB7DEB7E8E00C94E0
:102F10004025C12FD0E0FE01ED5CFE4F8081E82FFF
:102F2000E295EF70F0E0E0A1F0E08F7002C0F5955F
:102F3000E7958A95E2F7E170DE01AE5CBE4F4C91F9
:102F4000A42FA295AF70B0E090968C9190E04F7056
:102F500002C0959587954A95E2F780FD4DC080E0C7
:102F60008E2BDE01AD59BD4FEC919E2F93709817BB
:102F700009F440C0EE0FEE0FE82BEC93E0905F02F7
:102F8000E10EEF70F0E0EC5AFE4FCF59DD4F80813B
:102F90009881890F8883F12C823084F0EE2DF0E047
:102FA000E55AFD4F80818F5F80830E94ED16F82ED9
:102FB000882321F160E08E2D0E94D91688818F3FF1
:102FC00084F4EE2DF0E0E55AFD4F8081815080833E
:102FD0000E94ED16F82E8823A1F061E08E2D0E944C
:102FE000D9168881082E000C990BB6010E94002585
:102FF00088830F291F5F83CF82E0B2CFFF24F39431
:10300000DDCFFF24F394EDCF4091600250E060915A
:103010005F0270E0655A7D4F0E945E250895B0E022
:10302000A0E0E5E1F8E10C9424256C01D0E080E01B
:1030300090915D02D91740F081110E94540DCDB7D7
:10304000DEB7E8E00C944025F0905E02FD0E0F2DF7
:1030500010E0055A1D4FF601ED0FF11DC081F8017A
:103060009081C91BEC2E1E1444F09C2FC7FD90E0EC
:10307000C91BC1110DC0DF5FDBCFEA94F80180816D
:103080008F5F808360E08F2D0E94D91681E0EBCFA7
:10309000CF5FF80180818150808361E08F2D0E9495
:1030A000D91681E0E6CF0895FC01680F791F8FEFF4
:1030B00091E3E617F70709F408952191822728E0A4
:1030C00030E087FF06C0880F892721503109C9F7F2
:1030D000F0CF880FFACFCF93DF93EB0186319C4777
:1030E00011F50E947B0B9D81992399F08A7A91E0DA
:1030F00009F490E090936502811109C089E20E9471
:103100008D1A0E940A0C80E0DF91CF91089585E32B
:10311000F6CF80916502811104C089E20E94951A60
:10312000F0CF85E3FBCF81E0EFCFCF93DF93EC01CE
:10313000FB018581882309F4D2C09E0130572332D8
:10314000310508F0B2C00E94890C90937D028093F3
:103150007C02FE01E150F047E232F10520F4E25337
:10316000FA4D0C94142580917C02816080937C023E
:1031700093C080917D02886080937D028DC0809194
:103180007C028260F3CF80917C028460EFCF8091DB
:103190007C028860EBCF80917D028160EDCF8091D1
:1031A0007D028260E9CF80917C028061DFCF8091D7
:1031B0007C028062DBCF80917C028064D7CF0E944A
:1031C000D90680917C028068D1CF80917C028C608E
:1031D000CDCF80917D028360CFCF80917C028E7FA6
:1031E000C5CF80917D02877FC7CF80917C028D7F84
:1031F000BDCF80917C028B7FB9CF80917C02877F8D
:10320000B5CF80917D028E7FB7CF80917D028D7F7B
:10321000B3CF80917C028F7EA9CF80917C028F7D7D
:10322000A5CF80917C028F7BA1CF0E94D90680918F
:103230007C028F779BCF80917C02837F97CF809198
:103240007D028C7F99CF80917C0282FB992790F937
:1032500021E0922790FB82F990FB83F987CF809140
:103260007D02982F909591708E7F892B90FB81F92C
:1032700083CF90917C02892F8F7B96FF806476CFDD
:103280000E94D90690917C02892F97FB87F980587C
:103290006DCF81E00E94170D80917C0290917D029C
:1032A0000E948E0C0E94D90680E0DF91CF91089594
:1032B00080E0F0CF90917C02892F8F7E94FF806117
:1032C00055CF90917C02892F8E7F90FF81604ECFE9
:1032D00090917D02892F877F93FF88604DCF81E099
:1032E000E4CF0F931F93CF93DF93C42FD22FFC0112
:1032F00085818823C9F0409368020E944D1B9093FA
:1033000067028093660280E28C0F883040F4C770B9
:1033100081E001C0880FCA95EAF70E943304DF916B
:10332000CF911F910F91089510916802141332C02C
:1033300080916602909167020E94651B8436910518
:1033400048F5C0E2CD0F1D17B9F080E2810F88303B
:1033500040F4177081E001C0880F1A95EAF70E94C7
:103360003A04C83048F481E09D2F977001C0880F5F
:103370009A95EAF70E943304802F0E942A04C830ED
:1033800070F6D77081E001C0880FDA95EAF70E94E5
:103390003A04C5CF80E28C0F883008F6C77081E010
:1033A00001C0880FCA95EAF7F2CF0F93DB0188516D
:1033B0009C4787309105A0F5FC01E051FA4D0C9433
:1033C000142506E221EE41EE6AE17CE7CD010E9480
:1033D000711980E00F91089507E225EE45EE6BE14B
:1033E0007CE7F4CF06E221EE40EE68E17CE7EECF29
:1033F00007E225EE44EE69E17CE7E8CF06E221EE44
:1034000042EE6CE17CE7E2CF07E225EE46EE6DE1AD
:103410007CE7DCCF08E221E045EE6EE17CE7D6CF29
:1034200015968C91882319F010926802D3CF81E011
:10343000D1CF90936B0280936A0208950E94461246
:10344000811103C0809169020895E0916A02F091B0
:103450006B02309729F00190F081E02D09950895D5
:1034600080E00895E0916A02F0916B02309721F0BC
:103470000280F381E02D099508954091000150915B
:1034800001019A012E5F3F4F485F5F4F80E0241794
:10349000350709F40895F90191919F019923B9F332
:1034A0008F5FF5CF882371F02091000130910101E9
:1034B000F9013296285F3F4F9191981729F0E21752
:1034C000F307D1F780E0089581E008959C01FC01A5
:1034D00032969FEF80E04191461751F09F3F19F4DB
:1034E000411101C0982F8F5F8630A9F79F3F09F4E3
:1034F0000895290F311D97FD3A95F90162830895CA
:10350000FC01329608962191261303C0DF01119722
:103510001C92E817F907B9F70895682F8091000108
:10352000909101010E94661A0895682F8091000110
:10353000909101010E94801A0895E0910001F0919C
:103540000101329686E0DF011D928A95E9F7089520
:1035500008950E94A81A0895811106C081E0809301
:103560006C020E94A91A089582E0F9CF83E080934B
:103570006C020E94A91A08950E94AC1A089581E075
:1035800080936C020E94A91A08950E94BF1A0895A0
:10359000089508950E94C91A0895089508950E94F3
:1035A000C81A0895CF930E94CD1A0E94C0110E949C
:1035B000CE1AC0E08C2F0E949910811105C0CF5FF8
:1035C000CA30C1F7CF91089581E0FCCF85B78068FC
:1035D00085BF85B7806885BF08951F921FB61F926B
:1035E00011248F939F93AF93BF9380916D028111AC
:1035F00013C080919C0490919D04A0919E04B09171
:103600009F044196A11DB11D80939C0490939D043D
:10361000A0939E04B0939F04BF91AF919F918F910F
:103620001F901FBE1F9018958091A404843031F123
:103630000E94C50210926D0288E190E020E40FB66E
:10364000F894A895809360000FBE2093600083B724
:10365000817F846083BF83B7816083BF78948895BE
:1036600083B78E7F83BF0FB6F894A89580916000D2
:10367000886180936000109260000FBE08950E94E0
:10368000D9060E94CC02089582E084BD93E095BDE6
:103690009AEF97BD80936E0008952FB7F8948091AC
:1036A0009C0490919D04A0919E04B0919F042FBF13
:1036B00008952FB7F89460919C0470919D048091B7
:1036C0009E0490919F042FBF08959C014FB7F894DA
:1036D00080919C0490919D04A0919E04B0919F04C0
:1036E0004FBF821B930B0895CF92DF92EF92FF9210
:1036F0002FB7F894C0909C04D0909D04E0909E0455
:10370000F0909F042FBFA7019601261B370B480B93
:10371000590BCA01B901FF90EF90DF90CF90089547
:1037200078941F921FB61F9211248F939F93AF938B
:10373000BF9380919C0490919D04A0919E04B091B0
:103740009F040196A11DB11D80939C0490939D043C
:10375000A0939E04B0939F04BF91AF919F918F91CE
:103760001F901FBE1F90189587E797E79093010859
:103770008093000888E19AE00FB6F894A8958093AA
:1037800060000FBE90936000FFCF88E19AE00FB613
:10379000F894A895809360000FBE90936000FFCFCF
:1037A0001092B9008CE08093B8000895B0E0A0E0DA
:1037B000ECEDFBE10C942125B82EEB010E944D1B92
:1037C0006C01EE24E394F12CC431D10560F025E0C6
:1037D000E22EF12CCF3FDC0731F0CE0164E170E046
:1037E0000E94EC247B0184EAA82E94E8992E109282
:1037F000BC00A092BC000E944D1B8C018091BC00BB
:1038000087FF0DC08091B900887F8830F9F08091E2
:10381000B900887F8031D1F00FEF1FEF08C0C801D9
:103820000E94651BE816F90648F70EEF1FEFCF3F21
:10383000DC07E9F2C6010E94651BC817D907B8F674
:10384000C801CDB7DEB7EBE00C943D25B092BB00CC
:103850009092BC000E944D1B8C018091BC0087FFA0
:103860000AC08091B900887F883111F08034A1F6B8
:1038700010E000E0E5CFC8010E94651BE816F906DC
:1038800060F7D3CF0F931F93CF93DF93EB01809318
:10389000BB0084E88093BC000E944D1B8C0180918A
:1038A000BC0087FF11C02091B900287F81E090E023
:1038B000283211F490E080E0919581959109DF9193
:1038C000CF911F910F910895CF3FDC0741F3C801BD
:1038D0000E94651BC817D90710F78EEF9FEFEFCF37
:1038E000B0E0A0E0E6E7FCE10C9424256B018A013E
:1038F0007901B9010E94D61BE6010C0D1D1DC017F0
:10390000D10711F097FF08C024E92093BC00CDB780
:10391000DEB7E8E00C944025B70189910E94421C73
:10392000EECFB0E0A0E0E7E9FCE10C942425C62F3F
:103930006A017901B8010E94D61B97FD0CC0B8013D
:103940008C2F0E94421CE601EC0CFD1CCE15DF05FD
:1039500011F097FF08C024E92093BC00CDB7DEB773
:10396000E8E00C944025B80189910E94421CEECFFA
:1039700084E98093BC0008958EE14A9B02C0815087
:10398000E1F74A9BFECF08955A9880E28A95F1F7B5
:103990005A9A0895FC013BE03A95F1F798E020E04F
:1039A00080E031E040E14A95F1F7880F4A9B02C080
:1039B0008160232742E04A95F1F7000040E14A95F3
:1039C000F1F7915079F790E19A95F1F799B132E0DA
:1039D0003A95F1F7000040E14A95F1F792FB9927FB
:1039E00090F992272081920F90830895A1E0B0E092
:1039F000ECEFFCE10C94262519828C017C01E60E8B
:103A0000F11C0E151F0541F481E09981911180E0B0
:103A10002196E6E00C9442250E94BC1CCE01019642
:103A20000E94CA1CF80181938F01EBCF529A5A9AD7
:103A3000089552985A9AEA9AE9E6F0E080818F7CDC
:103A4000808308956150770B91E001C0990F6A95CA
:103A5000EAF720E031E0911108C0222391F05A9A50
:103A600080E28A95F1F75A980895492F482339F052
:103A70005A9A232740E24A95F1F79695ECCF5A9847
:103A8000F9CF5A98EDCFFF920F931F93CF93DF9307
:103A9000EC018C01060F111DC017D10729F4CDB719
:103AA000DEB7E5E00C944325F9900E94C41C68E061
:103AB0008F2D0E94221DF0CF1F920F920FB60F92F2
:103AC00011240F931F932F933F934F935F936F9303
:103AD0007F938F939F93AF93BF93EF93FF93CF9376
:103AE000DF930F92CDB7DEB719820E94BC1CCE01C6
:103AF00001960E94CA1C082F069506950695282F48
:103B000022952570902F9570290F922F93702695EE
:103B10002695920F982797708981982B09F05CC0A1
:103B2000063008F059C080E18A95F1F75A9A529A06
:103B300082E08A95F1F700C05A9888E0089F8001DA
:103B40001124D801AD5FBE4F1696ED91FC911797E9
:103B50003097A9F060914A0170914B0114962D9114
:103B60003C911597260F371F11968D919C911297B6
:103B7000680F791F13964C9113978C910995F80152
:103B8000ED5FFE4F6381662351F020914A01309131
:103B90004B0184819581820F931F0E94431D0E94D7
:103BA000C41C80E18A95F1F75A9852985A9A80E19C
:103BB0008A95F1F7F801ED5FFE4F6081662351F0C1
:103BC00020914A0130914B0181819281820F931F94
:103BD0000E94F61C0E94BC1C0F90DF91CF91FF91B8
:103BE000EF91BF91AF919F918F917F916F915F9175
:103BF0004F913F912F911F910F910F900FBE0F90FA
:103C00001F9018950F931F93CF93DF93EC010697A6
:103C10000CF04CC0F894529A5A9885E08A95F1F7C6
:103C200000009C2F969595708C2F8570980F892F8A
:103C300083709695969523E0CC0FDD1F2A95E1F7CA
:103C4000980F8E01092B0E94C41C00C068E0802FD1
:103C50000E94221D80E18A95F1F752985A9A4A9B58
:103C60001EC087E090E04A991CC0FE01ED5FFE4F48
:103C700063816623F9F020914A0130914B018481E0
:103C80009581820F931F0E94F61C811113C0529AD6
:103C90005A9A7894DF91CF911F910F91089500C0A7
:103CA000DECF019729F4529A5A9A789480E0F2CFA5
:103CB00000C0D9CF0E94BC1C80E28A95F1F75A98C7
:103CC000529A80E18A95F1F7CD5FDE4F68816623D5
:103CD00051F020914A0130914B0189819A81820FE4
:103CE000931F0E94431D0E94C41C789481E0D2CF90
:103CF0008091760208950895089508959B01BA0170
:103D00009091A4049430E9F48F708093E9009FEFC0
:103D10008091E800915085FD06C085ED8A95F1F708
:103D200000009111F5CF8091E80085FF0AC050E0B6
:103D300040E0C9010E9453208091E8008E77809373
:103D4000E8000895CF93DF93EC0148E050E0BC0118
:103D500081E00E947E1E88E0FE01AEE6B2E00190A6
:103D60000D928A95E1F7DF91CF9108958091A30498
:103D7000811109C00E94E3210E9440228091E2004B
:103D800084608093E20008951092A30408950E9435
:103D9000BF1A08956091A00481E0611101C080E024
:103DA0000E94B61A08959091A40481E0943009F01D
:103DB00080E06091A0040E94BC1A089542E061EC8A
:103DC00081E00E945F219091A40481E0943009F089
:103DD00080E06091A0040E94AC1A08958091A6042E
:103DE000833009F461C030F48130D1F1823009F4BC
:103DF0009EC008958A3009F48AC08B3009F46FC0E0
:103E0000893009F050C08091A504813209F04BC07F
:103E10008091A9049091AA04892B09F044C0809153
:103E2000E800877F8093E8008091E80082FF37C038
:103E30009091F3008091F200029731F48091F100AB
:103E4000813011F0863021F48091F1008093760268
:103E50008091E8008B778093E8000E94932123C033
:103E60008091A504813AF9F48091E800877F8093DE
:103E7000E8008091A9049091AA04892B61F468E07C
:103E80008EE692E070E00E94A2208091E8008B779D
:103E90008093E800089560E090E080E0F3CF8091A7
:103EA000A4048111C1CF08958091A504813AD9F766
:103EB0008091A9049091AA04892BA9F78091E80028
:103EC000877F8093E8008091E80080FFFCCF80919D
:103ED0003E018093F1008091E8008E77BCCF809105
:103EE000A504813201F78091A9049091AA04892B3D
:103EF000D1F68091E800877F8093E8000E949321AB
:103F00008091A70480933E010E94D9060895809174
:103F1000A504813241F68091E800877F8093E80014
:103F20000E9493218091A804809377020895809144
:103F3000A504813A09F0B7CF8091E800877F80938C
:103F4000E8008091E80080FFFCCF80917702C1CF2C
:103F500084B7877F84BF0FB6F894A89580916000DE
:103F6000886180936000109260000FBE80E890E04E
:103F70000FB6F89480936100909361000FBE0E9489
:103F8000C51A08950E94E3210E944022E2EEF0E06B
:103F900080818460808378940E94BF24089584E3A4
:103FA00091E00E94191A08958091A404853031F49B
:103FB0008091A404853019F00E943F1B08950E944F
:103FC000141B8091A204882399F30E94D21A88239B
:103FD00079F30E943D200E94D906EACF08959A0104
:103FE0004091AB045091AC040E94F71F0895492FF3
:103FF000552743305105C9F058F44130510599F126
:1040000042305105A9F190E080E050E040E01DC051
:104010004132510509F142325105A9F784E490E09B
:1040200044E153E0672B79F710C09927813091055F
:1040300081F0009729F0029731F7E2EBF2E002C03D
:10404000ECEDF2E0849190E0AF01F90151834083FF
:104050000895E0ECF2E0F6CF89E090E042EF52E024
:10406000672B89F6F2CF82E190E042E053E0EDCF9A
:1040700082E290E040EE52E0E8CF80E189BD82E14B
:1040800089BD09B400FEFDCF8091D8008F7D80935B
:10409000D8008091E00082608093E0008091E00091
:1040A00081FDFCCF0895AF92BF92CF92DF92FF9235
:1040B0000F931F93CF93DF936C01EB018A010E9452
:1040C000B221F82E811123C00115110539F0F80134
:1040D00080819181C81BD90BC80ED91EB12CA12C8F
:1040E0002097A9F08091E80085FD22C08091E8002A
:1040F0008E778093E80001151105A1F0F801808109
:104100009181A80EB91EB182A08285E0F82E8F2D74
:10411000DF91CF911F910F91FF90DF90CF90BF90D3
:10412000AF9008950E94B2218823D1F2F82EEFCFEC
:10413000F60181916F018093F1002197FFEFAF1A93
:10414000BF0ACECFFC018091AB049091AC048617DE
:104150009707A0F06115710529F49091E8009E770A
:104160009093E80090E06115710551F4911108C039
:104170008091E80082FF34C080E00895BC01F2CF56
:104180008091A4048823C1F18530C1F18091E800B9
:1041900083FD30C08091E80082FDEACF8091E80085
:1041A00080FFE1CF8091F3002091F200382F61155C
:1041B000710519F02830310558F091E028303105AB
:1041C00009F090E02091E8002E772093E800CBCF13
:1041D00081918093F100615071092F5F3F4FE7CFCC
:1041E0008091A404882341F0853041F08091E8005B
:1041F00083FFBECF81E0089582E0089583E00895B3
:10420000FC018091AB049091AC0486179707A0F055
:104210006115710529F48091E8008E778093E8009C
:1042200090E06115710551F4911108C08091E8008A
:1042300082FF35C080E00895BC01F2CF8091A404D4
:104240008823C9F18530C9F18091E80083FD31C030
:104250008091E80082FDEACF8091E80080FFE1CF05
:104260008091F3002091F200382F6115710519F04B
:104270002830310558F091E02830310509F090E000
:104280008091E8008E778093E800CBCF8491809373
:10429000F1003196615071092F5F3F4FE6CF809159
:1042A000A404882341F0853041F08091E80083FF29
:1042B000BDCF81E0089582E0089583E00895982FAE
:1042C000973028F08F708093E90081E008959093F3
:1042D000E900242F762F50E0981731F07091EC0010
:1042E0002091ED005091F00021FD02C09F5FE8CFCA
:1042F0003091EB003E7F3093EB003091ED003D7F3D
:104300003093ED003091EB0031603093EB0070930F
:10431000EC002093ED005093F0002091EE0027FD7B
:10432000E5CF80E008958091A50487FF13C08091B8
:10433000E80082FF06C08091E8008B778093E80058
:1043400004C08091A4048111F2CF08958091A40447
:104350008823D9F38091E80080FFF8CF8091E800AE
:104360008E77ECCF2091E4003091E50095E6A9012D
:104370002091EC00822F817020FF06C08091E80020
:1043800080FF06C080E008952091E80022FD1AC059
:104390008091A404882389F0853089F08091EB0016
:1043A00085FD0FC02091E4003091E50042175307CE
:1043B000F9F29150E1F684E0089582E0089583E0F7
:1043C000089581E008950E9452220E945A22E0EE50
:1043D000F0E0808181608083E8EDF0E080818F777C
:1043E000808319BCA7EDB0E08C918E7F8C93808187
:1043F0008F7E80831092A30408950F931F93CF9311
:10440000DF930E9452220E945A22C8EDD0E0888198
:104410008F77888388818068888388818F7D88836F
:1044200019BC1092A4041092A0041092A20410923D
:10443000A10400EE10E0F80180818B7F80838881E9
:104440008160888342E060E080E00E945F21E1EECD
:10445000F0E080818E7F8083E2EEF0E080818160F9
:104460008083808188608083F80180818E7F808353
:10447000888180618883DF91CF911F910F9108958A
:10448000E8EDF0E080818F7E8083E7EDF0E08081D1
:104490008160808384E082BF81E08093A3040E94D6
:1044A000FD210895E8EDF0E080818E7F80831092F9
:1044B000E20008951092DA001092E10008951F9230
:1044C0000F920FB60F9211242F933F934F935F9348
:1044D0006F937F938F939F93AF93BF93EF93FF93CC
:1044E0008091E10082FF0BC08091E20082FF07C053
:1044F0008091E1008B7F8093E1000E94BE24809137
:10450000DA0080FF19C08091D80080FF15C080912B
:10451000DA008E7F8093DA008091D90080FF96C008
:1045200080E189BD82E189BD09B400FEFDCF81E053
:104530008093A4040E94B61E8091E10080FF19C000
:104540008091E20080FF15C08091E2008E7F809311
:10455000E2008091E20080618093E2008091D800C7
:1045600080628093D80019BC85E08093A4040E94E7
:10457000CA1E8091E10084FF2BC08091E20084FF7D
:1045800027C080E189BD82E189BD89B5982F9170EE
:1045900080FFFBCF8091D8008F7D8093D8008091E1
:1045A000E1008F7E8093E1008091E2008F7E809316
:1045B000E2008091E20081608093E2008091A0049B
:1045C000882309F449C084E08093A4040E94D31E88
:1045D0008091E10083FF29C08091E20083FF25C024
:1045E0008091E100877F8093E10082E08093A404C2
:1045F0001092A0048091E1008E7F8093E100809171
:10460000E2008E7F8093E2008091E20080618093DF
:10461000E20042E060E080E00E945F218091F000D3
:1046200088608093F0000E94C71EFF91EF91BF91B8
:10463000AF919F918F917F916F915F914F913F913A
:104640002F910F900FBE0F901F90189519BC1092CC
:10465000A4040E94C41E70CF8091E30087FD93E004
:104660009093A404B3CF1F920F920FB60F92112410
:104670002F933F934F935F936F937F938F939F936A
:10468000AF93BF93CF93DF93EF93FF93D091E90064
:10469000DF708091EC00C82FC17080FDC0E81092DF
:1046A000E9008091F000877F8093F00078940E9469
:1046B00077231092E9008091F00088608093F000E9
:1046C000CD2BCF70C093E900FF91EF91DF91CF9197
:1046D000BF91AF919F918F917F916F915F914F911A
:1046E0003F912F910F900FBE0F901F901895AAE247
:1046F000B0E0EDE7F3E20C94292585EA94E02091FF
:10470000F100FC012193CF01F4E08D3A9F07B9F746
:104710000E94EE1E8091E80083FF1EC18091A504D7
:104720009091A6049A3008F017C1E92FF0E0E95003
:10473000FA4D0C941425803899F0823809F00CC198
:104740008091A9048F70873008F006C18093E9003A
:104750008091EB0085FB882780F91092E90006C064
:104760008091A1049091A204911182609091E8003F
:10477000977F9093E8008093F1001092F100809170
:10478000E8008E77E5C0882309F4D3C0823009F0B1
:10479000E3C08091A7048111D6C08091A9048F70D5
:1047A0002FEF280F263008F0D7C08093E900209122
:1047B000EB0020FFC8C0933031F48091EB008062A1
:1047C0008093EB00C0C09091EB0090619093EB0060
:1047D00021E030E001C0220F8A95EAF72093EA0039
:1047E0001092EA008091EB008860EACF8111B4C09A
:1047F0001091A7041F778091E3008078812B80932C
:10480000E3008091E800877F8093E8000E94932175
:104810008091E80080FFFCCF8091E3008068809366
:10482000E30082E0111183E08093A40495C08058D6
:10483000823008F091C08091A7049091A8048C3D2B
:1048400023E09207A1F583E08A838AE289834FB748
:10485000F894DE01139620E03EE051E2E32FF0E011
:1048600050935700E49120FF03C0E295EF703F5F43
:10487000EF708E2F90E0EA30C0F0C7968D939D9335
:104880002F5F243159F74FBF8091E800877F8093D5
:10489000E8006AE270E0CE0101960E94A2208091B9
:1048A000E8008B778093E80057C0C096E7CF60910F
:1048B000A9047091AA04AE014F5F5F4F0E94EF1FE1
:1048C000BC01892B09F448C09091E800977F909330
:1048D000E80089819A810E940021E1CF8038E1F5CA
:1048E0008091E800877F8093E8008091A004809306
:1048F000F10045CF811130C09091A704923060F54E
:104900008091E800877F8093E8009093A0040E9444
:1049100093218091A004882311F084E005C0809148
:10492000E30087FDFACF81E08093A4040E94DE1E9D
:1049300013C08091A704813079F481E0933009F0AD
:1049400080E08093A2041092E9008091E800877FC4
:104950008093E8000E9493218091E80083FF0AC0C1
:104960008091E800877F8093E8008091EB0080626F
:104970008093EB00AA96E3E00C9445250895CF932D
:104980008091A4048823A1F0C091E900CF70909198
:10499000EC00892F817090FD80E8C82B1092E9000F
:1049A0008091E80083FD0E947723CF70C093E900D7
:1049B000CF9108950E94E3211092A4040895E8ED98
:1049C000F0E08081806180838AE18A95F1F700C000
:1049D0008091D90081700895AA1BBB1B51E107C0CB
:1049E000AA1FBB1FA617B70710F0A61BB70B881F7F
:1049F000991F5A95A9F780959095BC01CD0108950E
:104A000097FB072E16F4009407D077FD09D00E947B
:104A1000EC2407FC05D03EF4909581959F4F0895B6
:104A2000709561957F4F0895EE0FFF1F0590F491EB
:104A3000E02D09942F923F924F925F926F927F9256
:104A40008F929F92AF92BF92CF92DF92EF92FF929E
:104A50000F931F93CF93DF93CDB7DEB7CA1BDB0B4A
:104A60000FB6F894DEBF0FBECDBF09942A883988EF
:104A700048885F846E847D848C849B84AA84B984F6
:104A8000C884DF80EE80FD800C811B81AA81B98102
:104A9000CE0FD11D0FB6F894DEBF0FBECDBFED0116
:104AA0000895FB01DC0104C08D910190801921F46F
:104AB00041505040C8F7881B990B0895FB01DC0159
:104AC00002C001900D9241505040D8F70895F999D5
:104AD000FECF92BD81BDF89A992780B50895A8E1CF
:104AE000B0E042E050E00C94AB25DC01A40FB51F10
:104AF0004150504048F0CB01840F951F2E910E94E9
:104B0000862541505040D0F70895262FF999FECFC1
:104B100092BD81BDF89A019700B4021639F01FBA10
:104B200020BD0FB6F894FA9AF99A0FBE089503962D
:104B3000272F0E9486250E948525252F0E948625E5
:104B4000242F0C9486250196272F0E9486250C94ED
:104B50008525DC01CB01FC01F999FECF06C0F2BD31
:104B6000E1BDF89A319600B40D9241505040B8F72B
:104B70000895F894FFCF85048504E004E004B504AB
:104B8000B5043306B5044B05BE05CE05CE053C067F
:104B90005D064606490650064C065506ED18611995
:104BA000F518BF18C318F918C718FD180919D31834
:104BB0005A19D7180D19DB1811193919DF181519D9
:104BC0004019E5181B192319CB180119CF1805191D
:104BD000E9181F192F1949195819B918F118681926
:104BE000F219F819E119EC19FE19041A0A1A9B2393
:104BF000C323AC24C323AC24F6231724AC246E2493
:024C00007A2414
:104C0200E7010100000001000000000000000501B2
:104C12000000000000000106000000000000010783
:104C220000000004080000000000000021007F22B4
:104C32000003F4F5781EA21E7C1E7D1E7B1E01F66B
:104C4200F7313332366697C634351302000810182E
:104C52001810080000FF0100010000FFFF00000122
:044C62000001FF004E
:00000001FF
